:100000000C94E3040C9400050C9400050C947533D7
:100010000C9400050C9400050C9400050C9400054C
:100020000C9400050C9400050C94B2310C948A32A7
:100030000C9467310C9400050C9400050C94000599
:100040000C9400050C9400050C9400050C9400051C
:100050000C9400050C948E310C9400050C94000552
:100060000C9400050C9400050C9400050C940005FC
:100070000C9400050C9400050C9400050C940005EC
:100080000C9400050C9400050C9400050C940005DC
:100090000C9400050C9400050C9400050C940005CC
:1000A0000C9400050C9400050C94000505010980D2
:1000B000A101850319012AB700150126B700950192
:1000C00075108100C0050C0901A101850419012AE0
:1000D000A002150126A002950175108100C00660DE
:1000E000FF0961A1010962150026FF00952075082E
:1000F00081020963150026FF00952075089102C052
:1001000005010906A101050719E029E715002501E8
:10011000950875018102950175088101050719008F
:1001200029FF150026FF00950675088100050819AE
:1001300001290515002501950575019102950175A7
:10014000039101C00000000000000000000000005A
:10015000000000000000000000000000000000009F
:1001600000000000000000007E0F00D4FFFFFFC76A
:100170000000007800000000000000002A2B28008A
:100180000000000000000000000000000000002946
:10019000000000002C1E3420212224342627252E86
:1001A000362D3738271E1F202122232425263333BE
:1001B000362E37381F0405060708090A0B0C0D0EEA
:1001C0000F101112131415161718191A1B1C1D2FB6
:1001D0003130232D350405060708090A0B0C0D0ED6
:1001E0000F101112131415161718191A1B1C1D2F96
:1001F0003130354C09025B00030100A0FA0904000C
:10020000000103010100092111010001224400073E
:100210000581030800010904010002030000000930
:10022000211101000122220007058203200001079D
:100230000503032000010904020001030000000976
:100240002111010001223200070584032000011260
:1002500001000200000008EDFEB0232301010203AB
:10026000011C037600690061006C003A00660036EC
:100270000034006300320062003300630000002895
:10028000034C006F007400750073002000350038C7
:1002900000200047006C006F00770020002800510C
:1002A000004D004B00290000002C0354007700652E
:1002B0000065007400790073002000570069006C2D
:1002C00000640020005400680069006E006B006943
:1002D000006E006700000004030904167C1E001F66
:1002E000002000210022002B0014001A0008001535
:1002F000001700320004001600070009000A005031
:10030000211D001B00060019000500AE004C006115
:1003100052E3242C2251002D002700260025002422
:100320000023002F00130012000C0018001C0034E2
:100330000033000F000E000D000B004F3138003766
:1003400000360010001100AE002A00625265342809
:1003500032520001003A003B003C003D003E0001EB
:100360000001000100010001000100010001000185
:100370000001000100010001000100010001000175
:10038000000100010001000100010001004E0044D5
:100390000043004200410040003F00010001000115
:1003A0000001000100010001000100010001000145
:1003B0000001000100010001000100010001000135
:1003C0000001000100010001004B000100010001DB
:1003D0000001000100010001000100010001000115
:1003E0000001000100010001000100010001000105
:1003F00000010001000100010001000100010001F5
:1004000000010001000100010001000100010001E4
:1004100000010001000100010001000100010001D4
:1004200000010001000100010001000100010001C4
:1004300000010001000100010001000100010001B4
:10044000000100007C0100010001001370767C01B6
:100450007C01000100010001000100010001000118
:100460000001000100010001000100010001000184
:100470000001000100010001000100010001002055
:1004800078287827780100010001002B7824782350
:10049000780100010001002C782678257801000100
:1004A0000001002D782A782978010001000100015F
:1004B0000001000100010001000100A900AA00A93B
:1004C00000AA00010001000100010001000100017B
:1004D000000100010001000100010022232526285F
:1004E000292A2C2D2F3032333536383A3B3D3E40C9
:1004F00042434547494A4C4E5051535557595A5C0F
:100500005E6062646668696B6D6F71737577797B25
:100510007D7F81838587898A8C8E90929496989A24
:100520009C9E9FA1A3A5A7A8AAACAEAFB1B3B4B639
:10053000B8B9BBBCBEBFC1C2C3C5C6C7C9CACBCC94
:10054000CDCED0D1D2D2D3D4D5D6D7D7D8D9D9DA67
:10055000DADBDBDBDCDCDCDCDCDDDDDDDDDCDCDCDC
:10056000DCDCDBDBDBDADAD9D9D8D7D7D6D5D4D304
:10057000D2D2D1D0CECDCCCBCAC9C7C6C5C3C2C1D9
:10058000BFBEBCBBB9B8B6B4B3B1AFAEACAAA8A736
:10059000A5A3A19F9E9C9A98969492908E8C8A89EE
:1005A000878583817F7D7B79777573716F6D6B69CB
:1005B00068666462605E5C5A5957555351504E4CA0
:1005C0004A4947454342403E3D3B3A38363533324F
:1005D000302F2D2C2A292826252322000101010154
:1005E00001010101010202020202020202020303EE
:1005F00003030303030304040404040404050505BE
:10060000050506060606060707070707080808087F
:10061000090909090A0A0A0B0B0B0C0C0C0D0D0D2C
:100620000E0E0E0F0F0F10101111111212131314C2
:1006300014151516161717181819191A1A1B1B1C3A
:100640001D1D1E1E1F202021222223242425262694
:10065000272829292A2B2C2D2D2E2F3031323233C9
:100660003435363738393A3B3C3D3E3F40414243D2
:100670004445464748494A4C4D4E4F5051535455B6
:100680005658595A5B5D5E5F616264656668696B66
:100690006C6D6F7072737577787A7B7D7E808283E4
:1006A0008587888A8C8E8F91939596989A9C9EA028
:1006B000A2A3A5A7A9ABADAFB1B3B5B7BABCBEC035
:1006C000C2C4C6C9CBCDCFD1D4D6D8DBDDDFE2E4FE
:1006D000E7E9EBEEF0F3F5F8FAFDFF783C1E1E14A7
:1006E0000A0501000100E90467177D1700000200F8
:1006F0000200E50467177D17000003000100EA040B
:1007000067177D17000004000200CF0467177D17EC
:100710004B0905000100EB0467177D170000060078
:100720000200D10467177D17000007000200E704EC
:1007300067177D17000008000100EC0467177D179C
:10074000000012000200ED0467177D17000013007F
:100750000200EF0467177D17000014000100F10488
:1007600067177D170000150000000000540999115B
:100770000000FD377A585A000004E6D6B44602005D
:10078000210116000000742FE5A3E0094302145D67
:10079000003D8889C65436C3174FE4E21132E3D8CE
:1007A0008794292C1FA5FF53606DDC3109F08B68FD
:1007B00069C1BAA99C253E2A60CD3E6CC74C7AEF30
:1007C000B863F093FA40E654648B1FECCB2BBF1553
:1007D000ADE7E9C378F8A76BC1C484997318D4C393
:1007E000A96355908086985B9510AD586DCC50826A
:1007F0005BD064C7151351A4BA7B9FD71BEB93BE84
:100800000600C9BB0F5CF59C99080D3CE82FFAE780
:100810000976BAE87DB23A689E3A1024B71083DDB3
:10082000FF4BF514E80100686CDDAA22A92337C547
:100830001FFB1BAA89055B94C06AE8C3425A328E2B
:100840006B5FABDF1CE449C184422646F08A1990F5
:1008500016786FE8C19BA0899369B6149D250A1D7F
:10086000B9B3C47B948D4A7C44B6AA6A0025FB3197
:100870005A6E4183CCE023E6001F91549B5BEEEB64
:10088000D7B329A955E36156B85C9DD199B820DB4F
:10089000BC02F01B00760BDBF3B176AE6587691501
:1008A000E37EC732BCAB00BEF1E34E1C5076A78D91
:1008B00051768206F9DAF8A0B2796F00D76074C079
:1008C00044F421A05DAD2CC6C142D8FFCD918ADA97
:1008D0002AC4CF732D6F6CA241F1A9125DD197E2AA
:1008E000F1E7BF06665CCE7AACEE3D99D95F117F29
:1008F0008B9F92D06D8DA176026D8C002E46B79F96
:1009000034AD58DA33BA9982B15455A0855E80F57A
:1009100032C5D2D170E190D0C55CCF231C04E0DB9E
:10092000F7159B751F95CCF1367292E68D1605FE74
:100930001248B6F27EF1F98E7AA977692D8B24845C
:10094000D94CBFF34D7F03FF10E73CA61C139A5E02
:10095000F3D9C5262CA0F106CF352239C08A1A66F4
:10096000398458DEBA4224168C039A06A6F2E18D29
:100970004C4F40B9C0E78D21C9B3877C8E4ECE5A0B
:1009800011F546BFAC8A09FCFEBCFA556D57E9501B
:1009900029017E3F6FC92B6A4EED012BD16083B5D3
:1009A000DFF9697000004E9CD76600ED5D2E0001F6
:1009B000B004C4120000276F92CAB1C467FB0200E2
:1009C00000000004595A11241FBECFEFDAE0DEBF49
:1009D000CDBF11E0A0E0B1E0EEE2FCE602C0059080
:1009E0000D92A43EB107D9F724E0A4EEB1E001C016
:1009F0001D92A73FB207E1F70E94E4280C94D53579
:100A00000C9400009C01FB019A9581159F4120F5F3
:100A1000832F8170B32FB270AA27732F747066274B
:100A2000532F5870442734FF0DC08295807FAB2B25
:100A300009F08062672B09F08064452B09F080681B
:100A400009950895AB2B09F08260672B09F084604B
:100A5000452BB1F38860F4CF80E0F2CF282F929538
:100A60009F70963099F060F4925F9F70923030F4EE
:100A7000203FB1F038F481E0283E38F080E008955E
:100A80009A5FF3CF81E0243FC9F7089591E0813F59
:100A900009F090E081E0283E08F080E0892B08957D
:100AA00081E00895809388040895809389040895CF
:100AB00021E030E001C0220F8A95EAF78091890495
:100AC000822B0E945505089521E030E0A90102C063
:100AD000440F551F8A95E2F7CA01809590918904C9
:100AE00089230E94550508959B01677091E001C01C
:100AF000990F6A95EAF763E0369527956A95E1F7CD
:100B0000B901660F771F260F371FFA01E20FF31F97
:100B100040E050E0682F70E08191DF019B01042EDE
:100B200002C0369527950A94E2F72170219528276F
:100B3000292328272E934F5F5F4F4330510561F7DC
:100B400008959C01A82FA77083E0369527958A9574
:100B5000E1F7C901880F991F820F931FFB01E80F6E
:100B6000F91F40E050E080E0219130E00A2E02C001
:100B7000369527950A94E2F721703327042E01C099
:100B8000220F0A94EAF7822B4F5F5F4F43305105E3
:100B900059F70895282F862F903F79F09A3070F4F6
:100BA000263058F4622F70E026E0929F600D711D90
:100BB000112447EB53E00E94740508959C5F923026
:100BC000E0F7622F70E044EB53E0F5CF903FC9F0BF
:100BD0009A3080F48630A8F4282F30E067EB73E079
:100BE000A901E6E09E9F400D511D1124CA010E94FB
:100BF000A10508959C5F923020F464EB73E090E0CF
:100C0000F6CF80E008959091890421E030E0F90169
:100C100001C0EE0F8A95EAF7D90102C0AA0FBB1FE7
:100C20006A95E2F7EA2B01C0220F4A95EAF7892F6D
:100C30008E23E81305C0892F822B0E945505089545
:100C40002095822F8923F9CF80918F0490918E0473
:100C5000981301C008958F5F8770FACF90918B042D
:100C60008095892380938B04282F2770211111C030
:100C7000891779F09091F40492FF0BC086958695C0
:100C800086950E94640510928B0410928D04109238
:100C90008C04089590918604982B9093860408956F
:100CA000982F9095809186048923809386040895D7
:100CB00080918504811531F010928504109284048E
:100CC0001092830408959C01803E910509F448C068
:100CD000D8F48133910509F47DC048F48932910537
:100CE00009F46DC08A9709F47CC0C901089589335D
:100CF000910551F18238910539F1C597B1F780918D
:100D0000F30485FFF2CF29C0843E910509F447C062
:100D100048F4823E910599F1833E9105A9F121EEB7
:100D200030E0E3CF863E910509F444C0873E91054B
:100D3000E1F68091F30483FD61C09091F40491FF8A
:100D40002BC024EE30E0D1CF8091F3048370811169
:100D500052C08091F40483FFC8CF29E230E0C5CFB0
:100D60008091F30480FD33C09091F40490FFBDCFD7
:100D700023EE30E084FFB9CF20E030E0B6CF8091A1
:100D8000F30482FDF5CFB1CF8091F30482FD30C032
:100D90009091F40490FD2FC084FFA7CFEDCF8091F8
:100DA000F40481FFA2CF8091F30427EE30E084FDAC
:100DB000E3CF9BCF8091F30483FDF7CF96CF809153
:100DC000F30485FD1EC08091F40483FF8ECF29E3D8
:100DD00030E08BCF8091F30486FF87CF2AE230E0AA
:100DE00084CF8091F30486FF80CF21E330E07DCF74
:100DF00022EE30E07ACF20EE30E077CF26EE30E002
:100E000074CF25E330E071CF9091F30492FF10C0CE
:100E100041E0282F2471243009F040E031E0282FF0
:100E20002871283009F030E0431711F02CE08227B8
:100E300093FF10C041E0282F2471243109F040E0D5
:100E400031E0282F2871283109F030E0431711F0E4
:100E50002CE082273091F40430FF10C051E0282F9D
:100E60002171213009F050E041E0282F287128300D
:100E700009F040E0541711F029E0822731FF10C03B
:100E800041E0282F2171213109F040E031E0282F85
:100E90002871283109F030E0431711F029E082274A
:100EA00094FD877E08951F93CF93DF930E9463067E
:100EB000EC01811522E5920708F055C0811540E547
:100EC000940708F0D1C0803E910520F58D3C910536
:100ED00008F0A4C0883A910570F4853A910508F0AD
:100EE0009AC081309105D1F10497813A9105B0F112
:100EF000C0E0D0E033C0885A91094B97C8F7C85A70
:100F0000D0E0CC0FDD1FC355DE4F0990D881C02D36
:100F1000D46424C0811550E49507C0F4C11580E263
:100F2000D80708F0B7C0C83ED105C0F0CE019A95E9
:100F300081159F41E8F68D2F0E940407182FCE01DE
:100F400099270E946306EC01D12B08C099270E94C3
:100F50006306CC27DF70C82BD92BD06ACE01DF9176
:100F6000CF911F910895803842E59407C8F58036E7
:100F700052E5950708F05BC0C03482E5D807D0F48D
:100F8000C03292E5D90708F04BC08C2F8695869524
:100F900020E2829FC0011124C37021E030E0A9014A
:100FA00002C0440F551FCA95E2F7EA01C82BD92B9E
:100FB000DD68D4CF8C2F86958695877050E2859F0B
:100FC000C0011124C37021E030E0A90102C0440F28
:100FD000551FCA95E2F7EA01C82BD92BDC68BECFB2
:100FE000803C52E5950758F48F71C03AD245A0F580
:100FF00090E0982F8827EC01C46FD06AAFCF805C57
:101000009245809708F074CFDC2FCC27CC27DF7176
:10101000C06FD06AA3CFA497D064A0CFD0659ECF75
:10102000CF71D0E0DC2FCC27C16FD06A97CF8695E7
:101030008695877020E2829FC0011124C37021E051
:1010400030E0A90102C0440F551FCA95E2F7EA013A
:10105000C82BD92BDA6882CF0E940407C82FD0E0B2
:10106000DC2FCC27D0627ACF8F710E94040793E0E7
:10107000CC0FDD1F9A95E1F7CC27DF70282F30E0E9
:1010800084FF04C050E1859F90011124C22BD32B13
:10109000D06964CF8D2F8F710E940407182FCE0165
:1010A00099270E946306EC01D12BDCCF80E00895E4
:1010B000F894E82FE295EF70F0E041A18F7021E005
:1010C00030E0B90102C0660F771F8A95E2F7CB01C5
:1010D000962F9095942391A392A1892B82A3789423
:1010E00008950895AF92BF92CF92DF92FF920F932F
:1010F0001F93CF93DF93F62EE901E42FF0E0E55242
:10110000FA4F611110C0E491BE2E2E2F2983E8837F
:10111000BA82DF91CF911F910F91FF90DF90CF9016
:10112000BF90AF900895C82ED12CA62EB12C34912B
:10113000232F46E0849F80011124EFEFF0E0C801E7
:10114000BF010E94C734CC0CDD1C45E5469FC001A1
:10115000479F900D1124C81AD90A8C2D880FC80EEC
:10116000CF018A199B095C013A9DC0013B9D900DFE
:101170001124B92EFC9CD0011124AB2FBB27AF0149
:101180004A1B5B0BDA013A9FA0013B9F500D1124D3
:10119000DF01AC19B1096D01FC9CD001FD9CB00DC3
:1011A0001124AB2FBB27EA1BFB0B3E9FD0013F9FB7
:1011B000B00D1124EB2F63307105C1F00C3F1340CB
:1011C00058F461307105B1F06230710509F09ECFBD
:1011D000E22F292FBB2E9ACF6430710571F0663053
:1011E000710509F493CFE92FB52E90CF292FB32E97
:1011F000E52F8CCFE22F252F89CFE92FB22E2B2F71
:1012000085CF80917B04843060F483708460809308
:101210007B0480917E04803B18F08FEA80937E04EB
:1012200008958432B0F383708062F1CFE8E7F4E090
:1012300011828281846082830895FA01811511F000
:1012400009950895FB01FCCF9C0121158CE7380717
:1012500041F480914C0390914D03892B11F420E0CF
:1012600030E0C9010895EDEDF3E080E090E06DE637
:1012700077E243E957E228E038E2778366835187D3
:1012800040873387228797878687019670968930B3
:10129000910599F708958091CF049091D00490938F
:1012A0001301809312010895EF92FF920F931F9301
:1012B000CF93DF93FB018FEF9FEF4430510508F48C
:1012C0005FC04091F30441FB882780F990E0880FCC
:1012D000991F42FB002700F910E0000F111F000FBB
:1012E000111F802B912B40FBEE24E0F8F12C8E296E
:1012F0009F2943FB222720F9C22F50E0D52F53E02E
:10130000CC0FDD1F5A95E1F78C2B9D2B44FB222738
:1013100020F950E1259F90011124822B932B45FB4E
:10132000222720F950E2259F90011124822B932B34
:1013300046FB222720F950E4259F90011124822B9F
:10134000932B47FB222720F940E8249F900111248A
:10135000822B932B2091F404322F3170932B2695FE
:101360002170B22FBB0FA0E08A2B9B2B092E000C03
:10137000AA0BBB0B80839183A283B38380E090E0B0
:10138000CDB7DEB7E6E00C94B8349C0143E0969507
:1013900087954A95E1F78E719927FC01E95EFD4F2B
:1013A00040815181F901EF70FF2721E030E002C058
:1013B000220F331FEA95E2F7611541F0422B532BC0
:1013C000895E9D4FFC01518340830895209530959F
:1013D00042235323F5CFFC01680F791F8FEF41E3C0
:1013E0009191892728E030E0982F990F87FF09C055
:1013F000892F842721503040B9F7E617F70781F786
:101400000895892FF7CFFA01309709F009950895CB
:101410008091A203811103C0809116020895E0918A
:10142000AA03F091AB03309729F00190F081E02DF1
:101430000995089580E00895A3E0B0E0E2E2FAE0C3
:101440000C94A0349C018091140290911502821793
:101450009307A1F03093150220931402E091AA03A0
:10146000F091AB03309751F083E089833B832A836B
:101470000084F185E02DCE01019609952396E2E0E6
:101480000C94BC34A3E0B0E0E8E4FAE00C94A0349F
:101490009C01809112029091130282179307A1F090
:1014A0003093130220931202E091AA03F091AB0350
:1014B000309751F084E089833B832A830084F1854F
:1014C000E02DCE01019609952396E2E00C94BC3400
:1014D0002FB7F89480910E0290910F02A091100204
:1014E000B09111022FBF08958091D1049091D20440
:1014F000892B91F00E94680A209183043091840422
:10150000AC01421B530B9A0181E04091D1045091F0
:10151000D2042417350708F480E00895962F20910F
:10152000F40422FF10C0682F660F660F660F692B48
:1015300060938B040E9458050E94680A90938D0462
:1015400080938C0408950E94580508959091850415
:10155000292F2823211561F0809589238093850404
:10156000811539F00E94680A809383049093840463
:10157000089580E090E0F8CFCF93C82F8091F404D5
:1015800082FF0CC0809185048C1741F00E94680A8C
:101590009093840480938304C0938504CF9108952D
:1015A0002FB7F89460910E0270910F028091100293
:1015B000909111022FBF0895CF92DF92EF92FF9288
:1015C0008091A203811559F00E94D00A6B017C0121
:1015D000C701B601FF90EF90DF90CF9008950E9471
:1015E000D00AC0909E03D0909F03E090A003F0909B
:1015F000A103C60ED71EE81EF91EEACF0E94DC0A20
:101600000895CF93DF938091A203811529F00E9462
:10161000680ADF91CF9108950E94DC0AEB01862FC2
:101620009D2FF7CF9C014FB7F89480910E029091B7
:101630000F02A0911002B09111024FBF821B930BB9
:1016400008950F931F938B019C014FB7F8946091FD
:101650000E0270910F0280911002909111024FBF03
:10166000601B710B820B930B1F910F91089587E7FD
:1016700097E7909301088093000888E19AE00FB6FD
:10168000F894A895809360000FBE90936000FFCF00
:1016900080910D02089508950895FC019B018091A9
:1016A0000302909104028617970740F0672B29F4F4
:1016B0008091E8008E778093E800C90140E00097B0
:1016C00041F4411106C08091E80082FF2FC080E004
:1016D000089520914E032115A9F12530A9F12091FB
:1016E000E80023FD2DC02091E80022FDECCF2091E1
:1016F000E80020FFE4CF3091F3002091F200009742
:1017000019F02830310558F041E02830310509F052
:1017100040E02091E8002E772093E800D0CF41915F
:101720004093F10001972F5F3F4FE9CF80914E0327
:10173000811541F0853041F08091E80083FFC3CFEF
:1017400081E0089582E0089583E008958091FD018D
:1017500087FF13C08091E80082FF06C08091E800F7
:101760008B778093E800089580914E038111F2CF2A
:10177000089580914E038115D9F38091E80080FF90
:10178000F8CF8091E8008E77ECCF2091E400309183
:10179000E50095E6A9012091EC00822F817020FFE1
:1017A00006C08091E80080FF06C080E00895209187
:1017B000E80022FD1AC080914E03811589F0853022
:1017C00089F08091EB0085FD0FC02091E4003091FD
:1017D000E50042175307F9F29A95E1F684E008957F
:1017E00082E0089583E0089581E00895E8EDF0E057
:1017F00080818E7F80831092E2001092DA00109236
:10180000E100A0EEB0E08C9181608C9380818F77B5
:10181000808319BCA7EDB0E08C918E7F8C93808182
:101820008F7E80831092FC010895982F9093E90099
:10183000891771F07091EC002091ED005091F0004B
:1018400021FD09C09F5F973089F78093E9000895D3
:10185000762F242F50E03091EB003E7F3093EB0049
:101860003091ED003D7F3093ED003091EB00316021
:101870003093EB007093EC002093ED005093F00058
:101880002091EE0027FDDECF0895A0E0B0E0EBE46C
:10189000FCE00C949A34C8EDD0E088818F7E888378
:1018A000E7EDF0E080818160808384E082BF81E0A9
:1018B0008093FC0188818E7F888302EE10E0F8011E
:1018C00010821092DA0081EEC82ED12CF60110821F
:1018D00088818F77888388818068888388818F7DDD
:1018E000888319BC10924E031092FB0110922203C0
:1018F0001092FA0190EEE92EF12CF70180818B7F96
:10190000808388818160888342E060E080E00E947B
:10191000150CF60180818E7F8083F80180818160C3
:101920008083808188608083F70180818E7F8083BF
:10193000888180618883CDB7DEB7E8E00C94B63447
:101940009C012115310509F408958FE99FE0019765
:10195000F1F700C0000021503109F3CF409103019D
:1019600080917B0480FF24C02091020130E0C901F6
:10197000880F991F820F931F805C9D4F539A6BB104
:10198000677F7BB17860EFB7F89450E09A01220F3F
:10199000331F240F351F280F391F28173907E9F483
:1019A000EFBF8FE594E00197F1F700C000000895C4
:1019B0008091040190910501282F30E0F901EE0F8C
:1019C000FF1FE20FF31FE05CFD4F891768F61182DD
:1019D000108212828F5F3396F8CFDC014D91CD01DA
:1019E00058E07BB9000000C047FF6BB9440F00000E
:1019F00000C000C000C06BB900C05A9591F7CDCFB0
:101A0000EBE7F4E080818E7F80830E941609E8E78F
:101A1000F4E08281816082830E94AE0C08959091EF
:101A20007B0490FF11C09091040150910501292F72
:101A300030E0F901EE0FFF1FE20FF31FE05CFD4FF6
:101A4000951718F00E94AE0C08958183608342833D
:101A50009F5F3396F5CFA3E0B0E0E1E3FDE00C94A7
:101A6000A03490917B0490FF0DC0403B08F04FEAFA
:101A70009E012F5F3F4F0E9472084B8169818A81CE
:101A80000E940F0D2396E2E00C94BC34CF93DF93B9
:101A9000EC01EBE7F4E0438162818C810E942B0D25
:101AA0008C818F5F8C83DF91CF910895CF93DF93EB
:101AB000EC01EC81F0E0E552FB4F4491EBE7F4E000
:101AC000628181810E942B0D8C818F5F8C83DF91DD
:101AD000CF9108950F931F93CF93DF938B01EA016A
:101AE00090914E03943059F58093E9008FEF9091D7
:101AF000E80095FD06C095ED9A95F1F700008A95EE
:101B0000B1F78091E80085FF1AC00E94C50B8111D2
:101B100011C08091E80085FD06C08091E8008E77B5
:101B20008093E800F2CFF80181918F018093F1005A
:101B3000219779F78091E8008E778093E800DF9114
:101B4000CF911F910F910895CF93DF93D82FC92F75
:101B500048E050E0682F792F81E00E946A0D88E00C
:101B6000ED2FFC2FA5E0B2E001900D928A95E1F7F0
:101B7000DF91CF910895BC0143E050E084E00E94E2
:101B80006A0D0895A0E0B0E0E8ECFDE00C94983414
:101B9000182F092FB62EA72E7A018091F8019AE00E
:101BA000C92ED12C8A3018F0CC24C394D12CC1E09A
:101BB000D0E06B2D7A2D812F902FF701099581119F
:101BC00016C02196CC16DD0694F0CC9FC001CD9FA7
:101BD000900D900D112420E030E045E34A95F1F797
:101BE00000002F5F3F4F28173907B9F7E2CFCDB775
:101BF000DEB7EAE00C94B4349091F40492FB22270F
:101C000020F9281779F080FB92F99093F404609101
:101C1000F3047091F40484E090E00E94B73582E010
:101C20000E942E0608950F931F93CF93DF930FEC1E
:101C300014E0C9E2D2E0CE010E947535F80181932B
:101C40008F012196CD34F2E0DF07A9F7CCEED6E084
:101C5000FE0185919491009711F0FC0109952C9655
:101C6000F7E0CC37DF07A1F7DF91CF911F910F91FC
:101C700008950F931F93CF93DF93843030F56A302C
:101C800020F5463010F5C42FD0E0CC0FDD1F2CE03E
:101C9000629FC00DD11D112438E7839FC00DD11D57
:101CA0001124CE0189960E947535082F10E0102F5F
:101CB0000027CE018A960E9475359801282BC9010C
:101CC000DF91CF911F910F91089580E090E0F8CFC0
:101CD000FF920F931F93CF93DF93F42E843070F510
:101CE000623060F528E0829FE001112434E0639FB8
:101CF000B0011124C60FD71FC75FDD4F81E08427D5
:101D00009E01280F311D280F311DC9010E94753514
:101D1000082F10E0102F002781E090E0F11002C0A2
:101D200083E090E08C0F9D1F0E9475359801282B51
:101D3000C901CDB7DEB7E5E00C94B93480E090E09E
:101D4000F8CF2091A6033091A703232BD9F4703F3D
:101D500039F4603FB9F48091A4039091A5030895EC
:101D60007A3048F4663070F4843060F4462F672F80
:101D70000E94390E08957D3F41F4623018F441E02D
:101D8000843050F080E090E008957C3FD9F76230D5
:101D9000C8F78430B8F740E00E94680E0895A0E0CC
:101DA000B0E0E5EDFEE00C949B347C0100918904E9
:101DB00080918804082BC3E0D0E010E0C8010C2E0D
:101DC00002C0959587950A94E2F780FD09C0219796
:101DD000A8F7D12C8D2DCDB7DEB7E7E00C94B73442
:101DE000DC2EB7018C2F0E94A10E0E945307019791
:101DF00071F3F0CFCF93DF93D82FC92F0E94CF0E6E
:101E00006D2F7C2F0E94A10E0E945307DF91CF916E
:101E10000895FC018481811539F0808191810E94AF
:101E2000FA0E0E942E05089580E008951F93CF9327
:101E3000DF93182FD92F611599F0411589F00E9471
:101E4000CF0EC82F682F812F9D2F0E94CA05612FAA
:101E50007D2F8C2F0E94A10EDF91CF911F910895AD
:101E60000E94E605C82FF3CFFC01462F65818081D3
:101E700091810E94160F089585E290E00E947535C9
:101E8000813D89F486E290E00E9475358F3759F4E0
:101E900087E290E00E94753591E0893D09F090E07D
:101EA000892F8170089580E0FCCFCF93DF93C0919C
:101EB000860480918A04C82B809185048115E9F0FD
:101EC0008091D1049091D204892B29F00E94740A48
:101ED00081110E945806D091850420E088EE91E09F
:101EE000FC013081019631112F5F31E08E3E930766
:101EF000B9F721110E945806CD2BC093E60148E0A6
:101F000050E06CEA73E086EE91E00E944835892B40
:101F1000A9F088E0E6EEF1E0ACEAB3E001900D92C2
:101F20008A95E1F7E091AA03F091AB03309731F085
:101F30000280F381E02D86EE91E00995DF91CF914B
:101F400008950F931F93CF93C82F811539F18CEF0C
:101F50008C0F813AA8F508EE11E0F8018191C817BD
:101F600009F121E0EE3EF207C9F7EFEF80E0D8017A
:101F70009D918D01C91781F0EF3F19F4911101C0B6
:101F8000E82F8F5F863099F7EF3F31F00E2E000C6F
:101F9000FF0BEA51FE4FC2830E94550FCF911F9154
:101FA0000F910895E8EEF1E08191C81302C0DF01BE
:101FB0001E9231E0EE3EF307B9F70E94550FD5CFE0
:101FC00080E28C0F883048F4C77081E001C0880F30
:101FD000CA95EAF70E944A06DFCF8BE58C0F833063
:101FE00038F42C2F2452330BC9010E941C0AD6CF7F
:101FF000C85ACB3198F6EC2FF0E0EE0FFF1FE355F7
:10200000FE4F808191810E94420AC8CFCF93DF9317
:10201000EC01805E9109089720F068E571E1209756
:1020200011F46AE471E1CE010E9402058C2F0E9436
:10203000A10FDF91CF9108959C01611529F0809146
:102040008A04826080938A04C9019052811590436A
:1020500008F43327C9010E9406100895811581F103
:102060009CEF980F913A70F4E8EEF1E091918913AA
:1020700002C0DF011E9291E0EE3EF907B9F70E941F
:10208000550F089590E2980F983050F4877091E0C2
:1020900001C0990F8A95EAF7892F0E945006EFCF69
:1020A0009BE5980F933028F480E090E00E941C0A92
:1020B0000895885A8B3120F480E090E00E94420A13
:1020C0000895CF93DF93EC010E942E10CE01805E25
:1020D0009109089720F062E671E1209711F461E51B
:1020E00071E1CE010E940205DF91CF9108950F9317
:1020F0001F93CF93C82F0091EF041091F004893300
:1021000021F00091ED041091EE048C2F0E94A10F9C
:102110000115110539F48C2F0E942E10CF911F91BB
:102120000F9108958FE99FE00197F1F700C000003B
:1021300001501109EDCFA0E0B0E0E1EAF0E10C942C
:102140009934EC018881811509F49FC0813009F030
:1021500044C08981813049F48E010E5F1F4F8A810E
:102160000E947710E8012196EDCF823039F48E017C
:102170000E5F1F4F8A810E94A10FF4CF833039F484
:102180008E010E5F1F4F8A810E942E10EBCF84308C
:1021900011F02196E8CF2A81229680E090E06AE053
:1021A000AE014F5F5F4F2053330B2A30310550F0A3
:1021B0000097C9F2EFE9FFE03197F1F700C00000A6
:1021C0000197F6CF689FF001699FF00D1124C901B6
:1021D0008E0F9F1F2981EA01E3CFE82FF0E0EC5832
:1021E000FE4FB490282F26952695269530E0F901CC
:1021F000EC59FE4FE4908770F12C082E02C0F59444
:10220000E7940A94E2F7E0FAEE24FF24E0F8F901FB
:10221000EC5AFE4FC490D12C082E02C0D594C7941E
:102220000A94E2F7C0FACC24DD24C0F8F901EC5B93
:10223000FE4F049110E002C0159507958A95E2F7CC
:1022400001701127E114F10419F081EE0E94A10F31
:10225000C114D10419F086EE0E94A10F8B2D0E94AB
:102260007710C114D10419F086EE0E942E10E114EB
:10227000F10419F081EE0E942E100115110509F4E8
:1022800072CF8CE20E9477106ECFCDB7DEB7E9E057
:102290000C94B534811521F00E944A060E94550F16
:1022A0000895811521F00E9450060E94550F08954F
:1022B000811539F090918A04892B80938A040E94B9
:1022C000550F0895811541F0809590918A048923D6
:1022D00080938A040E94550F089510928604E8EEB8
:1022E000F1E086E0DF011D928A95E9F780E090E059
:1022F0000E941C0A80E090E00E94420A10928A0428
:102300000E94550F08950E946D112FEF84E39CE009
:10231000215080409040E1F700C0000088E19AE041
:102320000FB6F894A895809360000FBE909360005C
:10233000FFCFCF93DF93FB018FEF9FEF4430510529
:10234000B8F0D081C1810E946D11D093F304C370A5
:102350008091F4048C7FC82BC093F4046091F30443
:102360007091F40484E090E00E94B73580E090E042
:10237000DF91CF910895AAE2B0E0E1ECF1E10C9495
:102380009F348DEF91E0FC0101962091F1002083B4
:1023900022E085309207B9F78091FE01893009F477
:1023A00056C0C8F4823009F4B3C0833009F482C047
:1023B000813071F18091E80083FFE7C08091FD01D9
:1023C0009091FE019A3008F0E0C0E92FF0E0E95268
:1023D000FA4C0C94EF348A3009F489C08B3051F7F1
:1023E0008091FD01813231F78091010290910202CA
:1023F000892B01F78091E800877F8093E8000E9495
:10240000A60B8091FF01809300010E946D11D2CF35
:102410008091FD01813A71F68091E800877F809379
:10242000E8008091010290910202892B61F060E046
:1024300080E090E070E00E944D0B8091E8008B7787
:102440008093E800B7CF68E085E092E0F3CF809119
:10245000FD01813209F0AECF80910102909102021C
:102460008D7F892B09F0A6CF8091E800877F80932C
:10247000E8008091E80082FF18C09091F3008091FD
:10248000F200029731F48091F100813011F0863032
:1024900021F48091F10080930D028091E8008B7708
:1024A0008093E8000E94A60B85CF80914E03811196
:1024B000E0CF80CF8091FD01813A09F07BCF809100
:1024C000010290910202892B09F074CF8091E800FB
:1024D000877F8093E8008091E80080FFFCCF8091A7
:1024E00000018093F1008091E8008E77D9CF809130
:1024F000FD01813209F05ECF8091E800877F8093F3
:10250000E8000E94A60B809100028093F90152CF4F
:102510008091FD01813A09F04DCF8091E800877FDD
:102520008093E8008091E80080FFFCCF8091F90162
:10253000D8CF803889F0823841F5809101028F70C0
:10254000873018F58093E9008091EB0085FB8827A0
:1025500080F91092E90006C080912203880F9091C3
:10256000FA01892B9091E800977F9093E80080937F
:10257000F1001092F1008091E8008E7723C0811164
:1025800016C08091FF01813011F18091E80083FF36
:102590000AC08091E800877F8093E8008091EB007B
:1025A00080628093EB00AA96E3E00C94BB34823007
:1025B00061F78091FF01811589F01092E900809107
:1025C000E800877F8093E8000E94A60BDECF81E0C1
:1025D000933009F080E080932203EFCF80910102D5
:1025E0008F702FEF280F263080F68093E90020911E
:1025F000EB0020FFE2CF933031F48091EB0080625A
:102600008093EB00DACF9091EB0090619093EB0018
:1026100021E030E0A90102C0440F551F8A95E2F77E
:102620004093EA001092EA008091EB008860E8CFC6
:102630008111ABCF1091FF011F778091E30080786B
:10264000812B8093E3008091E800877F8093E800EE
:102650000E94A60B8091E80080FFFCCF8091E300F0
:1026600080688093E30083E0111101C082E08093D1
:102670004E038BCF8058823008F087CF8091FF01C6
:10268000909100028C3D53E0950799F583E08A8391
:102690008AE289834FB7F894DE01139620E03EE08A
:1026A00051E2E32FF0E050935700849120FF03C0E4
:1026B00082958F703F5F8F708A30C8F0895C90E0A0
:1026C0008D939D932F5F243161F74FBF8091E80078
:1026D000877F8093E8006AE270E0CE0101960E9455
:1026E0004D0B8091E8008B778093E8004ECF805DA2
:1026F000E6CF292F33272330310509F44EC078F572
:102700002130310509F488C08BE590E0E4EFF1E079
:102710002230310509F039CF2091E800277F20933E
:10272000E80020910302309104028217930708F415
:102730009C0140E02115310509F073C0411171C0C1
:102740008091E80082FDCDCF80914E03811549F242
:10275000853039F28091E80083FFF2CFC2CF8091BB
:102760000102909102022132310509F446C0223261
:10277000310509F00ACF8330910508F006CFFC013E
:10278000EE0FFF1FE558FE4F0190F081E02D8858B5
:102790009E4FDC018C9190E010C09C013327823069
:1027A00021F12330310568F4232BB9F4E7EDF2E091
:1027B000E4918E2F90E0E7EDF2E0009709F4E5CE8A
:1027C000ABCF2330310509F0E0CEE1E6F2E0E49151
:1027D0008E2F90E0E1E6F2E0F0CFE9EAF2E0E4915A
:1027E0008E2F90E0E9EAF2E0E8CFEFE7F2E0E49143
:1027F0008E2F90E0EFE7F2E0E0CF8330910508F014
:10280000C4CEFC01EE0FFF1FEF57FE4F0190F08189
:10281000E02D89E090E080CF82E190E0EFE4F2E00B
:102820007BCF80914E03811509F45BCF853009F48D
:1028300058CF8091E80083FD54CF8091E80082FD5D
:102840007FCF8091E80080FF75CF9091F300809159
:10285000F2002115310519F08830910550F041E062
:10286000089709F040E08091E8008E778093E800B7
:1028700061CF44914093F100319621503109019686
:10288000E8CF803809F081CE8091E800877F80937F
:10289000E8008091FB018093F1006DCE811175CE2F
:1028A0001091FF01123008F070CE8091E800877F10
:1028B0008093E8001093FB010E94A60B1115D1F044
:1028C00084E080934E0342E061EC81E00E94150CAD
:1028D00042E261EC84E00E94150C42E261EC82E08D
:1028E0000E94150C42E260EC83E00E94150C80917E
:1028F0004E034BCE8091E30087FDE2CF81E0E1CF34
:1029000080916E01877F80936E0190918A049D7FF4
:1029100090938A0484FF06C08F7E80936E0182E0CC
:102920000E944A0680916E0185FF06C08F7D8093CC
:102930006E0180E20E944A060E94550F0895CF92D0
:10294000DF92FF920F931F93CF93DF93EC018B01E4
:10295000F42E80916E0182FF65C0C0906F04D0900C
:102960007004CC16DD0619F0209709F05BC0809149
:102970006E018B7F80936E01C1E081FD10C080915C
:102980006D0490916E049801281B390BC1E0809171
:102990001201909113012817390708F4C0E08091C3
:1029A0006E01C0FB81F980936E016C2FC6010E94FD
:1029B000C5098091860481FF08C080916E01806105
:1029C00080936E0182E00E9450068091860485FF0C
:1029D00008C080916E01806280936E0180E20E9447
:1029E00050066C2FC6010E941C10F11431F080912A
:1029F000EA0485FF02C086FF29C08091ED04909112
:102A0000EE040E94A00C80916F04909170049C01D0
:102A100030522115304308F499270E9461100E941A
:102A2000801410C0CE01905281159043B8F4CE01AD
:102A300099270E94611080916F0490917004C817CB
:102A4000D90769F310936E0400936D04DF91CF9161
:102A50001F910F91FF90DF90CF900895CE01E9CFA5
:102A6000CF93DF93EC014A855B856E857F850E945D
:102A7000030A9B81909580918A04892380938A041C
:102A80008C810E9450060E94550F86E0FE01119233
:102A90008A95E9F7DF91CF910895CF93DF93EC0109
:102AA0008D8181FD14C082608D8380918A049B8119
:102AB000892B80938A048C810E944A060E94550FBC
:102AC000488559856E857F85CE010E94030A109244
:102AD000DA031092D9038D8180FD03C0CE010E94DC
:102AE0003015DF91CF910895A0E0B0E0EAE7F5E17D
:102AF0000C949A348901D42FC52F6B017C010E945C
:102B00000109A8016D2F7C2F88E090E00E94AB3571
:102B100098014D2F5C2FB601C70100E20E941735C6
:102B2000622F84E290E00E949935CDB7DEB7E8E0ED
:102B30000C94B634EBE7F4E085E0808311828FEFEC
:102B4000828387E583831482A8E7B4E012968C9190
:102B50001297836012968C93758125E030E04FEFD9
:102B600057E560E0868197810E94741508958091F1
:102B70007F04833018F48F5F80937F0420917B045F
:102B800030917C0440917D0450917E0460917F04DB
:102B90007091800480918104909182040E94741548
:102BA000089580917F04811519F0815080937F04EE
:102BB00020917B0430917C0440917D0450917E04EF
:102BC00060917F04709180048091810490918204CF
:102BD0000E9474150895A3E0B0E0E1EFF5E10C94D4
:102BE0009C34082FF62E142FE22E80917B0480FF58
:102BF00044C020917C04201308C090917D0496135A
:102C000004C090917E04941729F090917A04926008
:102C100090937A04E82FE695E695F0E0E957FE4FA9
:102C20009081909378048C7F843059F5412F103B2C
:102C300008F04FEA9E012F5F3F4F6F2D802F0E94BB
:102C400072084B8169818A810E940F0D00937C0478
:102C5000F0927D0410937E04E11479F020917B04BE
:102C600060917F0470918004302F4F2D512F8091FF
:102C70008104909182040E9474152396E6E00C94DE
:102C8000B834923019F410917E04E0CF9630F1F60A
:102C9000022FDCCFEBE7F4E0818121E04381628108
:102CA000885F0E94EB150895EBE7F4E0818121E055
:102CB0004381628188500E94EB150895EBE7F4E0B0
:102CC000628121E1620F08F46FEF21E0438181818D
:102CD0000E94EB150895EBE7F4E0628121E1621BAD
:102CE00008F460E021E0438181810E94EB150895A2
:102CF000EBE7F4E0438121E1420F08F44FEF21E0DC
:102D0000628181810E94EB150895EBE7F4E0438135
:102D100021E1421B08F440E021E0628181810E94B0
:102D2000EB1508950F931F93CF93DF930FEC14E0EF
:102D3000C9E2D2E0CE010E947535F80161918F01A0
:102D4000681719F0CE010E9499352196CD34F2E032
:102D5000DF0781F7DF91CF911F910F910895EFEC7D
:102D6000F4E0128E138E8FEA90E09183808385E0E9
:102D7000848F28E833E13383228322E330E0378BEA
:102D8000268B28EC30E0318F208F158E178E168E13
:102D900020E530E031A320A382A30E9492160E9476
:102DA0006D111092F4041092F30480E0846080931B
:102DB000F40460E074E084E090E00E94B7350E9483
:102DC000130E08951F93CF93DF93962F122F632F27
:102DD0008430D8F49A30C8F44630B8F4C42FD0E028
:102DE000CC0FDD1F2CE0929FC00DD11D112498E760
:102DF000899FC00DD11D1124CE0189960E9499355D
:102E0000612FCE018A960E949935DF91CF911F9153
:102E100008950F931F93CF93DF93962F142F022FB4
:102E2000632F843018F5923008F528E0829FE00186
:102E3000112434E0939FC0011124C80FD91FC75F2C
:102E4000DD4F81E084279E01280F311D280F311DA1
:102E5000C9010E94993581E090E0111102C083E020
:102E600090E0602F8C0F9D1F0E949935DF91CF91CC
:102E70001F910F910895CF93DF93C7EAD2E060E0EE
:102E8000CE010E9499352196C11584E0D807B9F783
:102E9000DF91CF910895CF93C82F61ED811101C0CB
:102EA0006FEF85E290E00E9499356FE7C11101C094
:102EB0006FEF86E290E00E94993569EDC11101C083
:102EC0006FEF87E290E00E949935CF9108959C01C1
:102ED000CB01DA01F901329645915491A417B50757
:102EE00048F0F9013496659174910E94553580E05F
:102EF00090E008958FEF9FEF08959C01DA0102960C
:102F0000FC0145915491FC0185919491A817B90752
:102F100058F0F9013496859194910E9455350E949C
:102F2000921680E090E008958FEF9FEF0895A0E063
:102F3000B0E0EDE9F7E10C949A34FA016901780107
:102F4000C82F880FDD0B3097B9F0DE0193E0AA0F90
:102F5000BB1F9A95E1F7AA5EBE4F11968D919C9189
:102F6000129784589C4F2C91422F50E0E217F105A4
:102F700008F4AF010E945535CE010E941C34182F71
:102F80008115D9F0E114F104C1F083E0CC0FDD1F0D
:102F90008A95E1F7FE01EA5EFE4F8381482F50E0FB
:102FA000E816F10408F4A701CA5EDE4F6C817D814A
:102FB00064587C4FC6010E945535812FCDB7DEB7CE
:102FC000E8E00C94B634A1E0B0E0E9EEF7E10C944F
:102FD0009434762E5A014901680101E010E09E0107
:102FE0002F5F3F4F40E050E060E070E00E94971795
:102FF000182F8115A1F1F501608171818281938182
:103000000E94210B6980643671058105910530F4B9
:10301000B701C6010E94EB09861509F187019401E9
:1030200040E050E060E070E0872D0E949717082F85
:10303000B701C6010E94EB0910E086110BC0102FEA
:10304000117000FF07C00E94D00AF50160837183F0
:1030500082839383812F2196EEE00C94B034A701F4
:10306000B601C4010E945535F5CFA5E0B0E0EBE311
:10307000F8E10C949A346B0185E0E82EF12C0DE711
:1030800013E09E012F5F3F4F48E753E061E080E08F
:103090000E94E317811549F095E0FE013196A3E700
:1030A000B3E001900D929A95E1F795E0E3E7F3E044
:1030B000D60101900D929A95E1F72596E8E00C94DF
:1030C000B634A0E0B0E0E7E6F8E10C949834F82ECE
:1030D000EB01A42ED22EE32EB02EC12E6881798171
:1030E0008A819B810E94210B6436710581059105BF
:1030F00010F4A11499F000E010E020E030E04B2D36
:103100005C2D6D2D7E2D8F2D0E949717811539F026
:103110000E94D00A688379838A839B8381E0CDB73C
:10312000DEB7EAE00C94B434A1E0B0E0EAE9F8E1FB
:103130000C949E340E94080A898341E090918F0389
:10314000981301C040E001E010E09E012F5F3F4F67
:1031500067E573E088E00E9461182196E4E00C9432
:10316000BA340F931F93CF93DF93D82FC92F45E025
:1031700050E062E873E00E94483541E0892B09F491
:1031800040E005E010E02D2F3C2F6FE673E082E079
:103190000E946118DF91CF911F910F9108950F93B5
:1031A0001F9341E090918D0380918904981301C091
:1031B00040E001E010E029E834E06FE573E086E0EC
:1031C0000E946118811589F041E090918E038091F1
:1031D0008804981301C040E001E010E028E834E0E2
:1031E0006BE573E087E00E9461181F910F910895CD
:1031F000ABE0B0E0EEEFF8E10C949E3428E0EBE7B2
:10320000F4E0CE010196DC0101900D922A95E1F7E0
:10321000309178042091790450917A0439872A8773
:103220005B8741E09C01511101C040E00BE010E0E0
:103230006FE473E08AE00E946118811110927A04B1
:103240002B96E4E00C94BA34A4E0B0E0EAE2F9E1B1
:103250000C949E34609163037091640380916503C4
:10326000909166030E94210B11E06436710581057F
:10327000910520F10E94DC0ADC01CB010296A11D20
:10328000B11D89839A83AB83BC8300E010E020E00A
:1032900030E044E050E0BE016F5F7F4F85E00E9468
:1032A0009717182F811551F00E94D00A609363037D
:1032B000709364038093650390936603812F249633
:1032C000E4E00C94BA34A3E0B0E0E9E6F9E10C9450
:1032D0009E346091530370915403809155039091F3
:1032E00056030E94210B30918604398364367105A0
:1032F00081059105B8F581E020919003231301C069
:1033000080E090918A049A83811106C081E0209127
:103310009103291301C080E0909185049B83811162
:1033200004C0809192038917C1F000E010E020E012
:1033300030E043E050E0BE016F5F7F4F89E00E94C4
:103340009717811559F00E94D00A60935303709328
:103350005403809355039093560381E02396E4E051
:103360000C94BA3481E0CDCFAAE0B0E0EAEBF9E109
:103370000C949334A0904C03B0904D0381E090E006
:1033800090934D0380934C033BEBE32E34E0F32EFC
:10339000C12CD12C10E0360100E015C0F4012591BC
:1033A0003491452D602F812F0E94E21622E0820E7B
:1033B000911C539436E05312F1CF86E0680E711CD5
:1033C0000F5F0A3049F0C301880F991F9C012552F5
:1033D0003D4F4901512CE2CFF7012591349141E055
:1033E00060E0812F0E940917F701329625913491F0
:1033F00040E060E0812F0E940917F7013496259183
:10340000349141E061E0812F0E940917F70136965F
:103410002591349140E061E0812F0E94091738E046
:10342000E30EF11C1F5F8CE3C80ED11C143009F0B1
:10343000B2CF0E94AF161A8219821C821B821E8292
:103440001D8218861F8288EC90E09A8789870DE498
:1034500012E04AE050E0B801CE0101960E94BD356D
:10346000065F1F4F073A22E0120799F7B0924D030B
:10347000A0924C032A96EFE00C94AF3480E00E94B7
:103480004B1760E088E290E00E9499350E94B419E1
:103490000E943B1781E00E944B170895A8E0B0E01E
:1034A000E4E5FAE10C94A03466EE7EEF80E090E073
:1034B0000E94B73560E082E090E00E94993581E09B
:1034C0008093880461E083E090E00E94993560E099
:1034D00074E184E090E00E94B73560E086E090E01F
:1034E0000E9499356FEF87E090E00E94993540E0A7
:1034F00050E0BA0188E090E00E94AB3560E084E2E1
:1035000090E00E94993560E087E190E00E94993553
:1035100060E08CE090E00E94993560E08DE090E002
:103520000E94993519821A821B821C821D821E827A
:103530001F82188648E050E068E170E0CE010196F5
:103540000E94893540E050E0BA0180E290E00E949C
:10355000AB3580E00E944B170E943E1A40E050E0DD
:10356000BA018FE090E00E94AB3540E050E0BA0134
:1035700083E190E00E94AB352896E2E00C94BC34E5
:1035800060917B046695669570E041E050E081E0D3
:1035900091E00E943B35892B19F481E080937904F6
:1035A0000E94010B909332038093310380917A043F
:1035B000846080937A04089590917B0490FF42C0C8
:1035C000811509F440C0893008F03FC08F73282F5F
:1035D000220F220F80917B048370282B20937B0481
:1035E00080917A04816080937A04611581F0309132
:1035F0007C0440917D0450917E0460917F04709121
:10360000800480918104909182040E9474156091DD
:103610007B046695669570E041E050E081E091E0C2
:103620000E943B35892B99F00E94160981E0809316
:10363000340320E040917E0460917D0480917C04FD
:103640000E94EB15089581E0C2CF88E0C0CF0E94B0
:10365000C01AECCF80917B04869586958F5F893068
:1036600008F081E061E00E94DC1A089580917B04FB
:10367000869586958A9509F488E061E00E94DC1AB7
:10368000089590917B0490FF09C0969596959817A0
:1036900028F0961718F40E942A1B089561E00E94F2
:1036A000DC1A0895A5E1B0E0E8E5FBE10C94913463
:1036B000FE013C968AE0DF011D928A95E9F780E9D8
:1036C000E82E81E0F82E8F0195E9692E91E0792EA0
:1036D0002F01AA24A394B12C3BE9832E31E0932E31
:1036E000F70181917F018F3F09F43EC0F894E82FE4
:1036F000E295EF70F0E021A18F70A50102C0440FA8
:10370000551F8A95E2F7CA01922F982B91A392A197
:103710008095892382A3789400C0E5E9F1E031E047
:10372000312C21912F3F79F0A22FA295AF70A05E8E
:10373000B0E08C9190E02F7002C0959587952A9506
:10374000E2F780FFACC080E0382A330F8E169F0668
:1037500041F7F70182918F3F11F00E94580850EA1B
:103760005A95F1F7D8013C920F5F1F4F6E147F04FA
:1037700009F0B6CF4AE050E0B20182E193E00E9446
:1037800048356C01892B41F08AE0F201A2E1B3E0F7
:1037900001900D928A95E1F7E0901D03F12CF7015D
:1037A000EE5BFC4F7F01C114D10409F47AC081E0C3
:1037B0008093F7010E94680A9093F6018093F501C7
:1037C0008091A2038E010F5F1F4F811509F4BEC0C7
:1037D00085E0D8011D928A95E9F78091F8018A3039
:1037E00008F081C045E358E1B801C7010E94C20D4D
:1037F000811509F499C041EB58E1B801C7010E9455
:10380000C20D811509F490C04DE858E2B801C70116
:103810000E94C20D811509F487C044E259E1B80144
:10382000C7010E94C20D811509F47EC04FEC58E11A
:10383000B801C7010E94C20D811509F475C044E9A1
:1038400058E1B801C7010E94C20D811509F46CC08E
:1038500043E659E1B801C7010E94C20D811509F480
:1038600063C048EF58E1B801C7010E94C20D81153D
:1038700009F45AC01092F80180911C0390E045E0D1
:1038800050E0B8018E5B9C4F0E94483521E02093A8
:10389000F401892BE9F56596E1E10C94AD34832FB1
:1038A00053CF8091F701811509F48ACF8091F501FA
:1038B0009091F6010E94120B059708F481CF45E024
:1038C00050E062E173E0C7010E944835892B41F066
:1038D00085E0E2E1F3E0D70101900D928A95E1F7EE
:1038E0001092F7016DCF8091F2019091F3010E9447
:1038F000120B843F914008F075CF8091F40181153F
:1039000051F285E0F80111928A95E9F71092F401DD
:10391000A0911C03B0E0AE5BBC4F85E0F8010190C4
:103920000D928A95E1F7B7CF8091F8018F3F39F476
:103930000E94680A9093F3018093F201DECF8F5FBB
:103940008093F8018A3008F497CFF2CFC0901C031F
:10395000D12CA6014E5B5C4F6A0185E0F701ADE713
:10396000B3E001900D928A95E1F765E070E08DE794
:1039700093E00E94EB0980937C0385E0E2E8F3E0AA
:10398000D60101900D928A95E1F740913A0350E0FB
:103990006091390370E068597C4FC8010E94553529
:1039A00089818093880361E070E0C8010E94EB097F
:1039B00080938703C0908903D0908A03E0908B03A3
:1039C000F0908C038091EE019091EF01A091F001B5
:1039D000B091F101C816D906EA06FB06B1F0C09213
:1039E000EE01D092EF01E092F001F092F1010E941D
:1039F000D00AC61AD70AE80AF90AC0929E03D092E2
:103A00009F03E092A003F092A10380918D03809325
:103A1000890480918E038093880480918F03809322
:103A20001602809191039091900390938604809365
:103A30008A04809192030E94BC0A8BE0E3E9F3E0E0
:103A4000D80101900D928A95E1F7F0909403E090EF
:103A50009503D090960300919C0310919D031092C2
:103A60009D03111509F417CF10FF0DC0898180FF48
:103A70001EC090917B04916090937B0460E08695DA
:103A800086950E94DC1A11FF06C020E04D2D6E2D98
:103A90008F2D0E94EB1512FF04C0011559F00E94F2
:103AA000C01A13FFF8CE81E080933403F4CE0E9455
:103AB000000DE9CF0E941609F4CF282FCB01293041
:103AC00070F44AE0249F90011124B901635B7D4F9B
:103AD0004AE050E00E94653580E090E008958FEF65
:103AE0009FEF0895AAE0B0E0E8E7FDE10C94A03470
:103AF0009C0197558115914070F4BE016F5F7F4F17
:103B0000822F0E945D1D892B31F489859A852A9622
:103B1000E2E00C94BC348091E7049091E804F7CF84
:103B2000A0E0B0E0E6E9FDE10C949B348091CE0486
:103B3000803108F049C08091CD04811509F444C05A
:103B4000C0918F0487E0D82E80918E048C17E1F10C
:103B5000EC2EF12CDC9EE0011124FE01E057FB4F1E
:103B600084818115B1F191818091C904981331C08C
:103B700090818091C80498132CC08581811129C03F
:103B8000028113818091CA049091CB04081B190B08
:103B900060E088EC94E00E94340F0E94721D0817C8
:103BA0001907B8F48091CE048F7080618093CE04A1
:103BB000CA56DB4F88818F708061888388EC94E0DF
:103BC0000E94FB200E942406CDB7DEB7E7E00C94EC
:103BD000B734E7012196C770B7CFADE0B0E0E3EFAF
:103BE000FDE10C9491348C0186E0F801DE01189619
:103BF00001900D928A95E1F7D80115964C90159792
:103C000014963C9088ECC82E84E0D82E8091CC0489
:103C100081111CC0311499F0411409F4A9C1C801E3
:103C20000E94090F811509F4A3C187E0F801A8ECEF
:103C3000B4E001900D928A95E1F70E94901DFF2457
:103C4000F3948F2D2D96E1E10C94AD34F801608052
:103C50005180E280F38060E088EC94E00E94340FB1
:103C60005C017090CD048091CA049091CB0447010F
:103C7000881A990A60E088EC94E0711409F429C16B
:103C80000E94340F0E94721D8816990608F0DFC04A
:103C90003114A9F28091C904D80111969C91D09059
:103CA000CE04B0E1DB1608F09BC0F42C981318C0CA
:103CB0009091C804F8018081981312C0411012C07D
:103CC0008D2D8F7080618093CE0488EC94E00E94EB
:103CD000FB208091CE04D80116968C93F12CB1CFA5
:103CE0004114D9F08091CE0481608093CE04BAE271
:103CF000AB16B1E4BB0629F0ECE2AE16E2E4BE0678
:103D000069F788EC94E00E94FB2087E0E8ECF4E09F
:103D1000DF011D928A95E9F7E1CFE0918F04809150
:103D20008E04AE2F97E0A81302C097E02AC02A2F76
:103D300030E09A9FD0011124A057BB4F11964C91AF
:103D40001197541207C04C91641204C015964C91FF
:103D50004111EBCFD9011196A770E5CF2E2F30E09E
:103D60009E9FF0011124E057FB4F4181541206C081
:103D70004081641203C045814111B0CFF9013196F1
:103D8000E7708E13EBCF888599850E94FA0E292F54
:103D900022952F70903448F02A5F2F702230D0F097
:103DA000C8010E94FB20F72C4CCF9F70223040F0BE
:103DB000911559F0D80116969C91903130F441CF6D
:103DC000911519F0811509F43CCF805E883008F414
:103DD00038CFE6CF803F08F434CF815F8330F7CF10
:103DE000981315C09091C804F801808198130FC0F2
:103DF00041100DC0D682C8010E94FB2087E0F80167
:103E0000A8ECB4E001900D928A95E1F718CFC801B3
:103E10000E94090F811509F4ABC0411409F4A8C030
:103E20008091CE04803208F400CF8091C804909134
:103E3000C9049A838983FC82EB828091CC048D83B0
:103E40001E82DF82CE0101960E94FB20EECEB09052
:103E5000CE04F0E1BF1638F488EC94E00E94FB2019
:103E600087E0D60156CF311409F4E9CE9091C90408
:103E7000F8018181981311C09091C8048081981332
:103E80000CC041100AC0B682C8010E94FB2087E026
:103E9000D6011D928A95E9F7D2CEC8010E94090F7A
:103EA000811509F465C0411409F462C08091CE0403
:103EB000803208F4BACE8091C8049091C9049A83E4
:103EC0008983FC82EB828091CC048D831E82BF8229
:103ED000B9CF0E94340F0E94721D8816990608F00F
:103EE0004BC0311409F4ABCE411409F441C0909198
:103EF000C904F8018181981331C09091C804808170
:103F000098132CC0C090CA04D090CB0460E088EC19
:103F100094E00E94340F8A32914409F46FCFEC1878
:103F2000FD0824E6E216F10408F068CF8091CE0483
:103F300080FD64CF803108F461CFD80116968C9350
:103F40001697982F907F903F09F455CF982F907F28
:103F5000905F8F70892B16968C934DCFC8010E946D
:103F6000090F811162CE8091CE0481608093CE04CE
:103F7000C8010E94FB2063CE87E0F60111928A956A
:103F8000E9F7ACCEABE1B0E0E8ECFFE10C949D3496
:103F90004E8B5F8B688F798F082F8A8F192F9B8F9D
:103FA000F82E292F811549F08091F5049091F6049F
:103FB00001969093F6048093F504211110928A04DF
:103FC0001D8A86E0FE017696DE011F9601900D9215
:103FD0008A95E1F78091F40482FF21C08091D10499
:103FE0009091D204892BD9F00E94680A20918C0408
:103FF00030918D04821B930B2091D1043091D20417
:104000008217930738F080918B0482FD03C082E011
:104010000E942E060E94740A81110E945806F11413
:1040200039F00B8B1C8B61E0CE010F960E94340F90
:104030000B8B1C8B87E0FE013F96DE0118960190EA
:104040000D928A95E1F7CE0108960E94ED1D81112F
:1040500010C020918E0430918F0487E0FE013896C5
:10406000DE01119601900D928A95E1F78C85811100
:104070000BC017E080918F0490918E0489132BC0A0
:104080006B96E5E00C94B934822F90E0019687702E
:1040900099273817190671F40E946D1110928E0439
:1040A00010928F0487E0E8ECF4E0DF011D928A951E
:1040B000E9F7DFCF97E0929FD0011124A057BB4FC3
:1040C000FE01319601900D929A95E1F780938E044E
:1040D0000E942406CECF189FC001112480579B4F09
:1040E0000E94ED1D811561F280918F0490E0019690
:1040F0008770992780938F04BDCFA6E0B0E0E3E8F6
:10410000F0E20C949E340E94680A8C018091A8030E
:104110009091A9038017910779F019821A820E9461
:10412000680ABC0149815A8180E090E00E94C21F68
:104130001093A9030093A8032696E4E00C94BA34E4
:10414000A6E0B0E0E6EAF0E20C94A0349C01909383
:10415000A5038093A403211580E2380738F4C90130
:104160000E9406102696E2E00C94BC3480EF89830E
:104170008A830E94680A8160BC0149815A8181E07A
:1041800091E00E94C21FEECFA6E0B0E0EAECF0E2C0
:104190000C94A0349C019093A5038093A403211553
:1041A00080E2380738F4C9010E9461102696E2E0E7
:1041B0000C94BC3480EF89838A830E94680A8160F2
:1041C000BC0149815A8181E090E00E94C21FEECF7C
:1041D000CF93DF93D82FC92F0E94A0208091ED04A8
:1041E0009091EE040E94A00C8D2F9C2F0E94C42061
:1041F000DF91CF910895A4E0B0E0E1E0F1E20C940A
:1042000096347C01DC0114968C91811509F4B1C2BD
:1042100061E0C7010E94340F8C01F701858181158F
:1042200019F18091D9039091DA030097E9F008170A
:104230001907D1F0992754E0880F991F5A95E1F793
:10424000FC01EE51FC4F20812460208383529C4F5F
:10425000DC010D931C930E944D1510928A0461E0BD
:10426000C7010E94340F8C01F7018581811509F483
:10427000B1C0C80197578038910508F0F5C0D02E1D
:10428000F0E10F1708F064C28FEF93E00E947535DC
:1042900081115EC207EA12E0D11036C0FE013196EC
:1042A00084E0DF011D928A95E9F74F016801BFEFB5
:1042B000CB1ADB0AC8010E94753589831A828115E1
:1042C00009F446C2813009F080C05801E2E0AE0E28
:1042D000B11CC6010E947535D82E8A83811509F458
:1042E00037C2C5010E947535C82E8FEF8D0D833002
:1042F000C8F4CB82C11419F0C4010E949B100D5F59
:104300001F4F58018501D2CF011524E0120709F48F
:104310001FC2C8010E9475350F5F1F4F8111F4CF76
:10432000DA94BACF8BEF8D0D833030F50D5F1F4FD0
:104330005801CB82C11431F3C8010E9475353FEF9B
:10434000A31AB30A8C838115E9F28B819C81813099
:104350004FEF940710F0982F882756E0D51631F0CC
:10436000A7E0DA1631F00E94E820CCCF0E94A0200E
:10437000C9CF0E94C420C6CFB4E0DB12C3CF58011E
:10438000E4E0AE0EB11CC80103960E947535C1145D
:1043900009F4DEC1811509F4DBC18150990B4FEF9F
:1043A000489F9001499F300D11244C2D4150550BD1
:1043B000240F351F2150310908F4A4CF8FE99FE065
:1043C0000197F1F700C00000F5CFC4010E949B10D7
:1043D000560198CF6801A7E5DA1AC114B1E0DB06EF
:1043E00008F485C08091EA0480FF2BC00E94680A0F
:1043F0005C01F7018581811509F432C180916E015C
:1044000082FF06C040E0B50180E090E00E949F146A
:104410000431FCE71F0709F41FC105312CE712071F
:1044200009F4CAC003313CE7130709F40BC1C80102
:1044300090528115904308F0C9C0109270041092F8
:104440006F04D70115969C91911139C5809186040E
:104450008272F801E052F847E531F10508F01AC21E
:10446000EF51FA4C0C94EF34C801975581159140E7
:1044700008F0B8CFF801FF2724E0EE0FFF1F2A95C0
:10448000E1F79F0123523C4F6901D70115968C91AA
:10449000EE51FC4F908180FB90F99083811509F4D7
:1044A0006EC00E94680A9093DC038093DB03F601E0
:1044B00082818F5F828380918A0490918604892B08
:1044C00083838091850484834681578166857785BF
:1044D000C6010E94030AD60115968C9181FD4CC03D
:1044E000902F812F9093D9038093DA037BCF6FECC9
:1044F00073E08C2D0E945D1D892B09F0BBCFC60196
:1045000034E0880F991F3A95E1F7FC01E352FC4F24
:104510002281213031F52091CF033091D003232B1C
:1045200009F4A8CF2091D1033091D203232B09F4B1
:10453000A1CF2091D3033091D4034091D503509162
:10454000D603242B352B232B09F094CFFC01EE51FD
:10455000FC4F20812E7F208383529C4F0E944D155B
:1045600089CF223009F086CF2091D3033091D40334
:10457000232B09F47FCFEACF90E080E0B3CFF9019D
:104580004485558566857785C9010E94030AD60151
:1045900015968C9181FF26CFC6010E94301580911F
:1045A000D9039091DA030817190709F01BCF10926D
:1045B000DA031092D90316CF90916E01892F8E7F66
:1045C00090FF816080936E010E94801480916E0143
:1045D00080FF37CF0832110508F058C00E311105A1
:1045E00008F065C0C80104974A9788F58091EA04ED
:1045F00084FD2DC0D70115968C91811509F4DAC080
:104600008091850490918604892B8D7F811509F412
:1046100053C01092700410926F048091EA0481FDDF
:104620004BC060E0C8010E94C50960E0C8010E945B
:104630001C10809185048D7F0E94BC0A82E00E943C
:104640002E0686C080916E01816080936E01F70115
:1046500085818111F2CEF5CE80916E018E7FB2CF31
:1046600080916E018F7E013E110531F0053E1105EE
:1046700031F480916E018F7D80936E01A7CFC801C8
:1046800090528115904308F0A1CFDBCE093311057C
:1046900058F40D32110518F40B321105C1F6809152
:1046A000EA0482FDD4CFA6CF04361105F7CF80915E
:1046B000EA0483FDCCCF9ECF87E0F701A1E7B4E009
:1046C00001900D928A95E1F7109274041092730490
:1046D00080916F04909170040817190709F04DC07C
:1046E0002091EA0425FF49C030916E0131FF02C0DC
:1046F00026FF43C020916D0430916E046501C21AFB
:10470000D30A0E94721DC816D906B8F58091860496
:1047100081FF08C080916E01806180936E0182E00C
:104720000E9450068091860485FF08C080916E012A
:10473000806280936E0180E20E94500660916E015B
:104740006695617080916F04909170040E941C10B6
:1047500080918B048770811561F0D70115968C913B
:10476000811539F08091F40482FF03C082E00E9439
:104770002E062496ECE00C94B23480918504D090FF
:104780008604D82AD1FADD24D0F88D7F0E94BC0A95
:104790001093700400936F04B0926E04A0926D04A5
:1047A000DD0C6894D2F890916E01997FD92AD0924D
:1047B0006E0144CF40E0B501C8010E949F14C8CFEC
:1047C00080917B0480FF1EC0282F2E7F20937B04C6
:1047D00030917C0440917D0450917E0460917F046F
:1047E0007091800480918104909182040E947415DC
:1047F0000E94160980917A04816080937A040E9455
:10480000AE0CA6CF816080937B0461E0869586958F
:104810000E94DC1A9DCF46E35BE16AE27BE10E94E5
:104820001D0996CF4AE25BE166E37BE1F8CF44E500
:1048300056E16AE476E1F3CF4AE456E164E576E1D5
:10484000EECF4BE656E16EE576E1E9CF4EE556E177
:104850006BE676E1E4CF45E856E168E776E1DFCF45
:1048600048E756E165E876E1DACF41ED55E167EBDF
:1048700075E1D5CF47EB55E161ED75E1D0CF61E052
:1048800081E0C6CF65E082E00E94411B61CF68E015
:1048900086E0FACF0737BCE71B0709F48BC008375F
:1048A000ECE71E0709F48AC09115A9F00A35FCE768
:1048B0001F0709F4ADC008F085C001303CE71307BD
:1048C00009F4A4C003304CE7140709F499C001159A
:1048D0001C4709F488C0F7018581C080D18081150B
:1048E00009F49AC0C6010E94CF0E182F682FC60186
:1048F0000E94CA05B601812F0E94A10E0E94530793
:10490000082FD92ED7011596BC9015971696CC90E6
:10491000C2949FE0C92280918B048770811501F1B8
:104920009B2CB114F1F08D2D807F803461F080E2FA
:10493000800F8830A8F08D2D807E803221F40230E7
:1049400078F0C11469F08091F40482FF09C082E01C
:104950000E942E0680918B04877099249394811174
:10496000912CAD2CA2948FE0A822B8E0AB1609F4EC
:104970007EC1E9E0AE1608F085C0F4E0AF1608F09D
:1049800050C01D2D1F7022E0A21608F48EC08D2D80
:10499000807F803211F01295107F011509F4BCC0A0
:1049A000013009F426C1B11409F432C1C11409F46B
:1049B000CDC08FC081E00E94640589C282E091155C
:1049C000D1F383C20B358CE7180721F18091F404F1
:1049D000002482FF0394802D0C351C4709F07BCF07
:1049E0000E94FC0D78CF0E946D11AFEFB4E3ECE0B4
:1049F000A150B040E040E1F700C000000E94370B3A
:104A00006FEF7FEF80E090E00E94B7350E94831146
:104A100081E0E6CF80E0E4CFC6010E94E605182FD2
:104A200069CF34E0A31609F405C1AA2DA850BB0B29
:104A3000149710F40E94080A802F9D2D0E942E05C5
:104A400081111EC21092F6041092F5049114A9F07F
:104A500080918B0480FD11C0F701158286958695A3
:104A600086950E945805C7010E94FB2080918B0407
:104A70008695869586950E94640560E0C7010E9430
:104A8000340F77CE49E0A41609F461C186E08A0D9F
:104A90008F70823050F6023F09F069C18D2D8F7101
:104AA000B11062C10E945805C0CF50E1D51610F078
:104AB0001295107FB114B9F0111559F080E2800FF2
:104AC000883010F0011109C0812F0E944A060E940F
:104AD000550F802F0E94A10FA8CF80918A04812BAF
:104AE00080938A04F4CF802F0E942E10111509F4B0
:104AF0009CCF80E2800F883010F0011104C0812F1C
:104B00000E94500606C0109580918A0481238093EC
:104B10008A040E94550F89CF8091F40482FD12C04F
:104B2000B11449F0111529F0812F0E944A060E9404
:104B3000550F80E0CFCF80E00E942E10111509F4B0
:104B400074CFDDCFB11491F1C11004C0812F0E9448
:104B50004A116BCFB1E0CB1211C080908504812F38
:104B60008821181709F461CF0E94680A9093840481
:104B700080938304812A8092850457CF8091EB042F
:104B8000823008F452CFC81250CF812F0E944A11B0
:104B9000812F0E94A60A80918704912F98231917CC
:104BA00009F443CF812B809387043FCFC11012C0FB
:104BB000812F0E945111812F0E94A60A80918704A3
:104BC000912F9823911509F430CF10951823109345
:104BD00087042BCF8091EB04823008F426CFE1E0EC
:104BE000CE1223CF809186048123811509F41DCF35
:104BF000DFCF8091F104B11421F08C1508F415CFAA
:104C0000A5CFC81608F011CF812F0E9451110DCFEA
:104C1000C114D1F38091EF049091F004093321F095
:104C20008091ED049091EE040E94A00C802F0E94D0
:104C30002E10FBCE8D2D869586958370811569F09B
:104C4000813009F0F2CE802F9D2D9370B11002C0FB
:104C500080E090E00E94420AE8CE802F9D2D937064
:104C6000B11002C080E090E00E941C0ADECE8D2DC3
:104C70008370811133C0B110D8CE402F4295469534
:104C80004770440F440F802F8F70042E01C0880F8F
:104C90000A94EAF7202F207104FF07C02FE030E0CC
:104CA00001C0220F4A95EAF720953D2D369536959D
:104CB0003370323071F0333051F04091880431302C
:104CC00029F0822B84230E945205AFCE842B822BA5
:104CD000FACF822B909188048927F5CFB11459F12E
:104CE000D0FEA3CE402F429546954770440F440F07
:104CF000802F8F70042E01C0880F0A94EAF7202FAE
:104D0000207104FF07C02FE030E001C0220F4A9558
:104D1000EAF720953D2D369536953370323091F077
:104D2000333071F040918904313049F0822B842373
:104D30000E9455057ACE823008F477CED3CF842BEB
:104D4000822BF6CF822B909189048927F1CF1D2DDC
:104D50001F70B11429F0812F0E945805802FF7CEC3
:104D6000802F0E945111812F0E9464055ECE60F455
:104D7000003FB9F0013F81F0B11409F47CC0C110CB
:104D8000A8CE8D2D8F718ECE033FF9F0043FA1F791
:104D90008091F40482FD25C08D2D8F71B11421F313
:104DA00081CE8091F104B11461F0C81608F03DCEB7
:104DB0002D2D2F7181E090E001C0880F2A95EAF730
:104DC000C2CF8C1508F431CEF3CF80E0B11409F4D2
:104DD000AFCF81E09D2D9F7101C0880F9A95EAF7B2
:104DE000A7CF8091EB04823078F1B114E9F0909173
:104DF0008B049770943061F410928B0410928D04A0
:104E000010928C048D2D8F710E946405912C12CE0E
:104E1000C816E0F71D2D1F71812F0E94580563E011
:104E2000812F0E948E0AF2CFC81650F010928B0488
:104E300010928D0410928C0464E08D2D8F71F1CF4F
:104E400081E00E942E06E2CFB11451F01D2D1F719A
:104E5000812F0E94580563E0812F0E948E0AE5CDC4
:104E600081E00E942E06F2E0CF1608F4DECD82E04B
:104E70000E942E06DACDC110CDCE8D2D8F7174CF4C
:104E8000B11419F0C110DECDE1CDC110DBCD40E091
:104E9000D70115966C9115978D919C910E94160FD4
:104EA0008091EC0483FFCECD8091F5049091F604BF
:104EB000029709F0C7CD802F0E947710C3CD073726
:104EC000FCE71F0709F0EBCC81E00E94580543E0A6
:104ED00062E081E00E9403063BCC0F931F93CF93C7
:104EE000DF938C01862F6FEC73E00E945D1D892B90
:104EF000A9F4C091CF03D091D003209779F0F801A5
:104F00008281833051F4CE010E94E820CE010E94BC
:104F1000E820CE010E94E82001C0D8F7DF91CF91B0
:104F20001F910F9108950F931F93CF93DF938C01DF
:104F3000EB016FEC73E08C2F0E945D1D892B09F053
:104F40005AC0FE01FF27D80112968C911297E95C96
:104F5000FD4F8130A9F415968C9182FD51C080FFE0
:104F60004FC082E080838091D1039091D20300975B
:104F7000B9F48091CF039091D0030097E1F110C074
:104F80008230B9F515968C9182FD28C080FD0BC04A
:104F900083E080838091D3039091D403009701F143
:104FA0000E94A02028C084E080838091D503909146
:104FB000D6030097A9F78091CF039091D003009773
:104FC00011F10E94E8208091D1039091D2030097C3
:104FD00039F78091CF039091D003E2CF85E08083B1
:104FE0008091CF039091D003009729F00E94E82090
:104FF000F0CF86E08083DF91CF911F910F910895CC
:1050000081E08083B6CF8091D1039091D203B5CF58
:105010000F931F93CF93DF938C01EB016FEC73E041
:105020008C2F0E945D1D892BA1F48091ED0490913D
:10503000EE040E94A00CDD27C95CDD4F8881F801D9
:10504000128218828330F1F048F4813059F08230B6
:1050500081F0DF91CF911F910F9108958430B9F0C5
:105060008530B9F78091CF039091D003009789F3F1
:1050700006C08091D1039091D203009799F30E94CA
:10508000C420E7CF8091D3039091D403F6CF8091D1
:10509000D5039091D603009791F72091CF033091DB
:1050A000D0038091D1039091D20321153105F1F203
:1050B000009729F7C901E3CFADE0B0E0E2E6F8E2FE
:1050C0000C949E34182F062F8F83611501F18DEFFC
:1050D00088870E94680A22E02D87BC014F8158858D
:1050E0008D8591E00E94C21F19838DEF011101C0CF
:1050F0008CEF8A830E94680ABC0149815A818D85A0
:1051000090E00E94C21F2D96E4E00C94BA348CEF1C
:1051100088870E94680A23E0DFCFA1E0B0E0E3E9DE
:10512000F8E20C949934EE24E394F12C08E813E0AF
:105130009E012F5F3F4F4BE653E064E083E00E9407
:10514000E317082F811529F1D12C80E01BC0C090F6
:105150006A03CD0C2C2D30E0A90148595C4F7A012F
:10516000FE013196ED0DF11D1081FA019081191BA0
:10517000B12E1B149CF0912F17FD90E0191B1111FB
:1051800018C0D39490916703D91608F381110E9437
:10519000FE0A802F2196E9E00C94B534BA94F70109
:1051A00080818F5F808360E08C2D0E945C28802F3F
:1051B000E0CF1F5FF70180818150808361E08C2DFB
:1051C0000E945C28802FDBCFCDB7DEB7E4970FB607
:1051D000F894DEBF0FBECDBF85B7806885BF85B7A9
:1051E000806885BF84B7877F84BF0FB6F894A89581
:1051F00080916000886180936000109260000FBE13
:1052000080E890E00FB6F89480936100909361007D
:105210000FBE86E598E09093E5018093E4010E943B
:1052200033090E94130E0E94F60B0E94450C8091D8
:10523000E20084608093E200789480914E038115AF
:1052400099F08091E9001091EC008F70179511276B
:105250001795182B1092E9008091E80083FD0E94B9
:10526000BB111F701093E90082E084BD93E095BDEF
:105270009AEF97BD80936E0010929E0310929F0349
:105280001092A0031092A1030E943C0F811102C052
:105290000E943E1A88EC90E02091E30027FD0EC0AA
:1052A000AFE3BCE91197F1F700C000000197A1F747
:1052B0000E94F60B10924E0380E001C081E08093C3
:1052C000A20325982D98EFE8F1E03197F1F700C09F
:1052D000000083B185FB992790F99093A3039093E5
:1052E000070185FDEAC083E28093020183E2809397
:1052F00003018091A20381110E942E339091070136
:1053000081E0292F28272093390390936A039091F5
:10531000070180933A03909107018093670380917E
:105320000701811106C084EF8093150185EF8093FA
:10533000140180911501E82FE295EF70A1E2AE0F04
:10534000B0E04C918F7021E030E0790102C0EE0CAA
:10535000FF1C8A95E2F7C7019E2D909594239C939C
:10536000EE5DF0E09081892B808380911401E82F1D
:10537000E295EF70A1E2AE0FB0E04C918F70890121
:1053800002C0000F111F8A95E2F7C801902F909577
:1053900094239C93EE5DF0E09081892B80838FE8CD
:1053A00091E00197F1F700C0000010913A0365E128
:1053B00071E044E151E0EBE3EE2EE3E0FE2EFB0171
:1053C0008E2F861B811708F47AC080910701809187
:1053D000070190E0811101C095E090931D0385E0E5
:1053E000891B80931C0300E911E075E9A72E71E089
:1053F000B72EF80181918F018F3F11F00E9458085C
:10540000A016B106B1F705E911E06BE9A62E61E03F
:10541000B62ED8018D918D018F3F11F00E94580852
:10542000A016B106B1F78AE0E2E4F3E0DF01E82E6E
:105430001D92EA94E9F7E2E1F3E0DF011D928A951B
:10544000E9F780E090E00E948335863E9E4F21F48C
:105450000E943C0F811102C00E944E1A82E090E02F
:105460000E9475358093230384E090E00E94833589
:105470009093F4048093F3040E94521BEFEFF6E73D
:1054800001E0E150F0400040E1F700C000000E9460
:10549000521B8091A303E0E0811101C0E5E0F0E040
:1054A000EE5BFC4F808180FF33C06FEF7FEF80E0C9
:1054B00090E00E94B7350E94370B80E015CF019134
:1054C000802F82958F70805E90E0DC012C91DA0154
:1054D0003D91AD01832F82958F70805E90E0DC015D
:1054E0008C9190E03F7002C0969587953A95E2F7CF
:1054F000880F827030E00F7002C0359527950A95AD
:10550000E2F721703327822BD7018D937D0158CF8D
:1055100083E090E00E9475350E94520580911E0341
:10552000811183C080E090E00E948335863E9E4FCB
:1055300021F40E943C0F811104C00E944E1A0E9467
:105540009A1588E090E00E947D352B013C0184E2B1
:1055500090E00E947535282F30E040E050E060E098
:1055600070E080E090E000E20E94FC3453014201D0
:10557000242939294A295B2920937B0430937C0410
:1055800040937D0450937E0460937F047093800465
:10559000809381049093820480917A048360809345
:1055A0007A04243090F50E949A1588E090E00E94D9
:1055B0007D356BA77CA78DA79EA784E290E00E9413
:1055C0007535282F30E040E050E060E070E080E08A
:1055D00090E00E94FC34EBA4FCA40DA51EA52701BD
:1055E00038012E2935294629572920937B043093E9
:1055F0007C0440937D0450937E0460937F047093F9
:10560000800480938104909382040E9401090E9487
:10561000160980917B0480FF05C060E08695869521
:105620000E94DC1A81E080931E038091A203811105
:1056300002C00E94313388E091E09093AB038093E5
:10564000AA0358E1452E512C80914E038530D9F4A0
:1056500080914E03853009F463C00E946D110E9451
:10566000080A1092210380912003811551F0809146
:105670007B04816080937B0460E0869586950E9420
:10568000DC1A0E94C01A0E94521B04E213E042E49A
:10569000E42E43E0F42E2EE233E0D701F80191919D
:1056A0008D912E173F0709F49DC09817C1F3809084
:1056B000A203D12CD701CD907D01F80191908F01EB
:1056C0009C1439F19C24B12CAA24A3948A2D8921FD
:1056D0008115C1F08114B1F0B982DA820E94680AA2
:1056E0009C838B83F1E0FD8391E08A2D8C218111D5
:1056F00001C090E09E8349815A816B817C818D81BC
:105700000E94C21FB394AA0C26E0B212DFCFF801A8
:10571000C292D3943AE0D312CDCF0E94DC0A66C085
:1057200080914E03843009F433C00E9416098091A1
:10573000210381110BC0FF24F394F0922103809187
:105740007B048170809320030E94000D10921F0340
:1057500000E40FB6F894A895409260000FBE009345
:10576000600083B7817F846083BF83B7816083BF1C
:105770007894889583B78E7F83BF0FB6F894A895E9
:1057800080916000886180936000109260000FBE7D
:1057900080912203811509F45BCF0E94521BE2E441
:1057A000F3E08CE493E02191211104C08E179F0750
:1057B000D1F74ECF80E189BD82E189BD09B400FEF9
:1057C000FDCF8091D8008F7D8093D8008091E0003C
:1057D00082608093E0008091E00081FDFCCF0E9418
:1057E0006D1136CF981363CF0E947D208091A20364
:1057F000811509F44FC00091D9031091DA03011506
:10580000110521F18091DB039091DC030E94120BC2
:105810008BAB9CABC8010E94721DEBA8FCA88E1537
:105820009F05A0F48091D9039091DA03992734E081
:10583000880F991F3A95E1F7FC01EE51FC4F20814A
:1058400022FD04C083529C4F0E944D158091EA04B2
:1058500080FF20C080916E0182FF1CC00E94680AF8
:105860008FA798AB80916D0490916E042FA538A9F5
:10587000281B390B809112019091130128173907C9
:1058800048F041E06FA578A980916F049091700471
:105890000E949F1480917904811509F46AC0809157
:1058A0007804E0917B04E695E695E81BE0933303EA
:1058B000823009F064C0F0E0E252F94FE4910E2F1B
:1058C00010E026E5E22E2DE0F22E809134038115C2
:1058D00061F0109234030E94010B90933203809385
:1058E000310310923603109235030E94010B89ABED
:1058F0009AAB809131039091320329A93AA9281BD0
:10590000390B2F3F3F47A8F5209130032115C1F0F7
:105910001092300320912E0330912F0349A95AA9E8
:10592000421B530B4F3F5F4758F4205D3A4830937A
:105930002F0320932E0320917A04286020937A0469
:10594000C0903503D0903603800F911F909332039F
:105950008093310381E393E0F7010995809135034A
:1059600090913603892B29F4CD2819F0F1E0F093BA
:105970003003C12CA12CB2E0EB2EF12C8BC0863071
:1059800059F4F0E0E552F94FE4910E2F10E096E45F
:10599000E92E9DE0F92E99CF00ED17E081E7E82E82
:1059A00088E0F82E92CF0C2D10E0F801EB5EFE4F50
:1059B0004081E42FE295EF70E05EF0E02081F80195
:1059C000EC5EFE4F3081E32FE295EF70E05EF0E099
:1059D000808190E03F7002C0969587953A95E2F7F6
:1059E000880F827030E04F7002C0359527954A9538
:1059F000E2F721703327822BD801A55CBC4FEC91D4
:105A00009E2F9370891709F444C0EE0FEE0FE82B18
:105A1000EC93D0903903DC0CEF70F0E0E556FE4FCC
:105A2000095C1C4F8081D8019C91890F8C93B12C0B
:105A300082307CF0ED2DF0E0E859FC4F80818F5FE3
:105A40008083B090A203B114B9F060E08D2D0E9464
:105A50005C28F80180818F3F8CF4ED2DF0E0E8594F
:105A6000FC4F8081815080838091A203811521F0B9
:105A700061E08D2D0E945C28BB24B394D8018C91E9
:105A8000082E000C990BB7010E94DB34F8018083CB
:105A9000AB28C39480913A03C81608F484CFA110B0
:105AA0000E94FE0A0E94080A90913D03891721F086
:105AB00080933D030E94D00A80914E03843009F008
:105AC000C3CD83E08093E9008091E80082FFBCCDE4
:105AD0008091E80090E085FF05C00E94C50B81150C
